{
  "_format": "hh-sol-artifact-1",
  "contractName": "Create",
  "sourceName": "contracts/VotingContract.sol",
  "abi": [
    {
      "inputs": [],
      "stateMutability": "nonpayable",
      "type": "constructor"
    },
    {
      "anonymous": false,
      "inputs": [
        {
          "indexed": true,
          "internalType": "uint256",
          "name": "candidateId",
          "type": "uint256"
        },
        {
          "indexed": false,
          "internalType": "string",
          "name": "age",
          "type": "string"
        },
        {
          "indexed": false,
          "internalType": "string",
          "name": "name",
          "type": "string"
        },
        {
          "indexed": false,
          "internalType": "string",
          "name": "image",
          "type": "string"
        },
        {
          "indexed": false,
          "internalType": "uint256",
          "name": "voteCount",
          "type": "uint256"
        },
        {
          "indexed": false,
          "internalType": "address",
          "name": "_address",
          "type": "address"
        },
        {
          "indexed": false,
          "internalType": "string",
          "name": "ipfs",
          "type": "string"
        }
      ],
      "name": "CandidateCreate",
      "type": "event"
    },
    {
      "anonymous": false,
      "inputs": [
        {
          "indexed": true,
          "internalType": "uint256",
          "name": "voter_voterId",
          "type": "uint256"
        },
        {
          "indexed": false,
          "internalType": "string",
          "name": "voter_name",
          "type": "string"
        },
        {
          "indexed": false,
          "internalType": "string",
          "name": "voter_image",
          "type": "string"
        },
        {
          "indexed": false,
          "internalType": "uint256",
          "name": "voter_allowed",
          "type": "uint256"
        },
        {
          "indexed": false,
          "internalType": "string",
          "name": "voter_ipfs",
          "type": "string"
        },
        {
          "indexed": false,
          "internalType": "bool",
          "name": "voter_voted",
          "type": "bool"
        },
        {
          "indexed": false,
          "internalType": "uint256",
          "name": "voter_vote",
          "type": "uint256"
        },
        {
          "indexed": false,
          "internalType": "address",
          "name": "voter_address",
          "type": "address"
        }
      ],
      "name": "VoterCreated",
      "type": "event"
    },
    {
      "inputs": [],
      "name": "_candidateId",
      "outputs": [
        {
          "internalType": "uint256",
          "name": "_value",
          "type": "uint256"
        }
      ],
      "stateMutability": "view",
      "type": "function"
    },
    {
      "inputs": [],
      "name": "_votingId",
      "outputs": [
        {
          "internalType": "uint256",
          "name": "_value",
          "type": "uint256"
        }
      ],
      "stateMutability": "view",
      "type": "function"
    },
    {
      "inputs": [
        {
          "internalType": "uint256",
          "name": "",
          "type": "uint256"
        }
      ],
      "name": "candidateAddress",
      "outputs": [
        {
          "internalType": "address",
          "name": "",
          "type": "address"
        }
      ],
      "stateMutability": "view",
      "type": "function"
    },
    {
      "inputs": [
        {
          "internalType": "address",
          "name": "",
          "type": "address"
        }
      ],
      "name": "candidates",
      "outputs": [
        {
          "internalType": "uint256",
          "name": "candidateId",
          "type": "uint256"
        },
        {
          "internalType": "string",
          "name": "age",
          "type": "string"
        },
        {
          "internalType": "string",
          "name": "name",
          "type": "string"
        },
        {
          "internalType": "string",
          "name": "image",
          "type": "string"
        },
        {
          "internalType": "uint256",
          "name": "voteCount",
          "type": "uint256"
        },
        {
          "internalType": "address",
          "name": "_address",
          "type": "address"
        },
        {
          "internalType": "string",
          "name": "ipfs",
          "type": "string"
        }
      ],
      "stateMutability": "view",
      "type": "function"
    },
    {
      "inputs": [],
      "name": "getCandidate",
      "outputs": [
        {
          "internalType": "address[]",
          "name": "",
          "type": "address[]"
        }
      ],
      "stateMutability": "view",
      "type": "function"
    },
    {
      "inputs": [],
      "name": "getCandidateLength",
      "outputs": [
        {
          "internalType": "uint256",
          "name": "",
          "type": "uint256"
        }
      ],
      "stateMutability": "view",
      "type": "function"
    },
    {
      "inputs": [
        {
          "internalType": "address",
          "name": "_address",
          "type": "address"
        }
      ],
      "name": "getCandidatedata",
      "outputs": [
        {
          "components": [
            {
              "internalType": "uint256",
              "name": "candidateId",
              "type": "uint256"
            },
            {
              "internalType": "string",
              "name": "age",
              "type": "string"
            },
            {
              "internalType": "string",
              "name": "name",
              "type": "string"
            },
            {
              "internalType": "string",
              "name": "image",
              "type": "string"
            },
            {
              "internalType": "uint256",
              "name": "voteCount",
              "type": "uint256"
            },
            {
              "internalType": "address",
              "name": "_address",
              "type": "address"
            },
            {
              "internalType": "string",
              "name": "ipfs",
              "type": "string"
            }
          ],
          "internalType": "struct Create.Candidate",
          "name": "",
          "type": "tuple"
        }
      ],
      "stateMutability": "view",
      "type": "function"
    },
    {
      "inputs": [],
      "name": "getVotedVoterList",
      "outputs": [
        {
          "internalType": "address[]",
          "name": "",
          "type": "address[]"
        }
      ],
      "stateMutability": "view",
      "type": "function"
    },
    {
      "inputs": [
        {
          "internalType": "address",
          "name": "_address",
          "type": "address"
        }
      ],
      "name": "getVoterData",
      "outputs": [
        {
          "components": [
            {
              "internalType": "uint256",
              "name": "voter_voterId",
              "type": "uint256"
            },
            {
              "internalType": "string",
              "name": "voter_name",
              "type": "string"
            },
            {
              "internalType": "string",
              "name": "voter_image",
              "type": "string"
            },
            {
              "internalType": "uint256",
              "name": "voter_allowed",
              "type": "uint256"
            },
            {
              "internalType": "string",
              "name": "voter_ipfs",
              "type": "string"
            },
            {
              "internalType": "bool",
              "name": "voter_voted",
              "type": "bool"
            },
            {
              "internalType": "uint256",
              "name": "voter_vote",
              "type": "uint256"
            },
            {
              "internalType": "address",
              "name": "voter_address",
              "type": "address"
            }
          ],
          "internalType": "struct Create.Voter",
          "name": "",
          "type": "tuple"
        }
      ],
      "stateMutability": "view",
      "type": "function"
    },
    {
      "inputs": [],
      "name": "getVoterLength",
      "outputs": [
        {
          "internalType": "uint256",
          "name": "",
          "type": "uint256"
        }
      ],
      "stateMutability": "view",
      "type": "function"
    },
    {
      "inputs": [],
      "name": "getVoterList",
      "outputs": [
        {
          "internalType": "address[]",
          "name": "",
          "type": "address[]"
        }
      ],
      "stateMutability": "view",
      "type": "function"
    },
    {
      "inputs": [
        {
          "internalType": "address",
          "name": "_address",
          "type": "address"
        },
        {
          "internalType": "string",
          "name": "_age",
          "type": "string"
        },
        {
          "internalType": "string",
          "name": "_name",
          "type": "string"
        },
        {
          "internalType": "string",
          "name": "_image",
          "type": "string"
        },
        {
          "internalType": "string",
          "name": "_ipfs",
          "type": "string"
        }
      ],
      "name": "setCandidate",
      "outputs": [],
      "stateMutability": "nonpayable",
      "type": "function"
    },
    {
      "inputs": [
        {
          "internalType": "address",
          "name": "_candidateAddress",
          "type": "address"
        },
        {
          "internalType": "uint256",
          "name": "_candidateVoteId",
          "type": "uint256"
        }
      ],
      "name": "vote",
      "outputs": [],
      "stateMutability": "nonpayable",
      "type": "function"
    },
    {
      "inputs": [
        {
          "internalType": "uint256",
          "name": "",
          "type": "uint256"
        }
      ],
      "name": "votedVoters",
      "outputs": [
        {
          "internalType": "address",
          "name": "",
          "type": "address"
        }
      ],
      "stateMutability": "view",
      "type": "function"
    },
    {
      "inputs": [
        {
          "internalType": "uint256",
          "name": "",
          "type": "uint256"
        }
      ],
      "name": "voterAddress",
      "outputs": [
        {
          "internalType": "address",
          "name": "",
          "type": "address"
        }
      ],
      "stateMutability": "view",
      "type": "function"
    },
    {
      "inputs": [
        {
          "internalType": "address",
          "name": "_address",
          "type": "address"
        },
        {
          "internalType": "string",
          "name": "_name",
          "type": "string"
        },
        {
          "internalType": "string",
          "name": "_image",
          "type": "string"
        },
        {
          "internalType": "string",
          "name": "_ipfs",
          "type": "string"
        }
      ],
      "name": "voterRight",
      "outputs": [],
      "stateMutability": "nonpayable",
      "type": "function"
    },
    {
      "inputs": [
        {
          "internalType": "address",
          "name": "",
          "type": "address"
        }
      ],
      "name": "voters",
      "outputs": [
        {
          "internalType": "uint256",
          "name": "voter_voterId",
          "type": "uint256"
        },
        {
          "internalType": "string",
          "name": "voter_name",
          "type": "string"
        },
        {
          "internalType": "string",
          "name": "voter_image",
          "type": "string"
        },
        {
          "internalType": "uint256",
          "name": "voter_allowed",
          "type": "uint256"
        },
        {
          "internalType": "string",
          "name": "voter_ipfs",
          "type": "string"
        },
        {
          "internalType": "bool",
          "name": "voter_voted",
          "type": "bool"
        },
        {
          "internalType": "uint256",
          "name": "voter_vote",
          "type": "uint256"
        },
        {
          "internalType": "address",
          "name": "voter_address",
          "type": "address"
        }
      ],
      "stateMutability": "view",
      "type": "function"
    },
    {
      "inputs": [],
      "name": "votingOrganizer",
      "outputs": [
        {
          "internalType": "address",
          "name": "",
          "type": "address"
        }
      ],
      "stateMutability": "view",
      "type": "function"
    },
    {
      "inputs": [],
      "name": "winner",
      "outputs": [
        {
          "components": [
            {
              "internalType": "uint256",
              "name": "candidateId",
              "type": "uint256"
            },
            {
              "internalType": "string",
              "name": "age",
              "type": "string"
            },
            {
              "internalType": "string",
              "name": "name",
              "type": "string"
            },
            {
              "internalType": "string",
              "name": "image",
              "type": "string"
            },
            {
              "internalType": "uint256",
              "name": "voteCount",
              "type": "uint256"
            },
            {
              "internalType": "address",
              "name": "_address",
              "type": "address"
            },
            {
              "internalType": "string",
              "name": "ipfs",
              "type": "string"
            }
          ],
          "internalType": "struct Create.Candidate",
          "name": "",
          "type": "tuple"
        }
      ],
      "stateMutability": "view",
      "type": "function"
    }
  ],
  "bytecode": "0x608060405234801561001057600080fd5b5033600260006101000a81548173ffffffffffffffffffffffffffffffffffffffff021916908373ffffffffffffffffffffffffffffffffffffffff160217905550613213806100616000396000f3fe608060405234801561001057600080fd5b50600436106101215760003560e01c80638e945685116100ad578063b63c82ca11610071578063b63c82ca1461033f578063c91ec7121461036f578063dfbf53ae1461038b578063f116637f146103a9578063f7522a83146103c757610121565b80638e9456851461027e5780638fb4cd801461029c578063a3ec138d146102cc578063a738896714610303578063b28d92ae1461032157610121565b80635d55f2de116100f45780635d55f2de146101ae5780635f74bbde146101de57806370218b85146101fa5780637831ffb3146102185780638ab66a901461024857610121565b80630361419e1461012657806305ad45a4146101425780633a88251a146101605780635cc48aa714610190575b600080fd5b610140600480360381019061013b9190612193565b6103e5565b005b61014a610720565b6040516101579190612267565b60405180910390f35b61017a600480360381019061017591906122ae565b61072d565b60405161018791906122ea565b60405180910390f35b61019861076c565b6040516101a591906122ea565b60405180910390f35b6101c860048036038101906101c391906122ae565b610792565b6040516101d591906122ea565b60405180910390f35b6101f860048036038101906101f39190612305565b6107d1565b005b610202610ad1565b60405161020f9190612403565b60405180910390f35b610232600480360381019061022d91906122ae565b610b5f565b60405161023f91906122ea565b60405180910390f35b610262600480360381019061025d9190612425565b610b9e565b60405161027597969594939291906124d1565b60405180910390f35b610286610e20565b6040516102939190612403565b60405180910390f35b6102b660048036038101906102b19190612425565b610eae565b6040516102c3919061268e565b60405180910390f35b6102e660048036038101906102e19190612425565b61114d565b6040516102fa9897969594939291906126bf565b60405180910390f35b61030b61135a565b6040516103189190612267565b60405180910390f35b610329611366565b6040516103369190612403565b60405180910390f35b61035960048036038101906103549190612425565b6113f4565b6040516103669190612803565b60405180910390f35b61038960048036038101906103849190612825565b6116ff565b005b610393611994565b6040516103a09190612803565b60405180910390f35b6103b1611eee565b6040516103be9190612267565b60405180910390f35b6103cf611efa565b6040516103dc9190612267565b60405180910390f35b600260009054906101000a900473ffffffffffffffffffffffffffffffffffffffff1673ffffffffffffffffffffffffffffffffffffffff163373ffffffffffffffffffffffffffffffffffffffff1614610475576040517f08c379a000000000000000000000000000000000000000000000000000000000815260040161046c90612982565b60405180910390fd5b61047f6000611f07565b600061048b6000611f1d565b90506000600760008773ffffffffffffffffffffffffffffffffffffffff1673ffffffffffffffffffffffffffffffffffffffff1681526020019081526020016000206003015414610512576040517f08c379a0000000000000000000000000000000000000000000000000000000008152600401610509906129ee565b60405180910390fd5b60405180610100016040528082815260200185815260200184815260200160018152602001838152602001600015158152602001600081526020018673ffffffffffffffffffffffffffffffffffffffff16815250600760008773ffffffffffffffffffffffffffffffffffffffff1673ffffffffffffffffffffffffffffffffffffffff1681526020019081526020016000206000820151816000015560208201518160010190816105c59190612c1a565b5060408201518160020190816105db9190612c1a565b506060820151816003015560808201518160040190816105fb9190612c1a565b5060a08201518160050160006101000a81548160ff02191690831515021790555060c0820151816006015560e08201518160070160006101000a81548173ffffffffffffffffffffffffffffffffffffffff021916908373ffffffffffffffffffffffffffffffffffffffff1602179055509050506005859080600181540180825580915050600190039060005260206000200160009091909190916101000a81548173ffffffffffffffffffffffffffffffffffffffff021916908373ffffffffffffffffffffffffffffffffffffffff160217905550807f7fecbbe764c175e5e07cf46bca4c4003481ea9a7366077abf76763c2ee9d97b185856001866000808c6040516107119796959493929190612d62565b60405180910390a25050505050565b6000600580549050905090565b6003818154811061073d57600080fd5b906000526020600020016000915054906101000a900473ffffffffffffffffffffffffffffffffffffffff1681565b600260009054906101000a900473ffffffffffffffffffffffffffffffffffffffff1681565b600581815481106107a257600080fd5b906000526020600020016000915054906101000a900473ffffffffffffffffffffffffffffffffffffffff1681565b6001600760003373ffffffffffffffffffffffffffffffffffffffff1673ffffffffffffffffffffffffffffffffffffffff1681526020019081526020016000206003015414610856576040517f08c379a000000000000000000000000000000000000000000000000000000000815260040161084d90612e32565b60405180910390fd5b60001515600760003373ffffffffffffffffffffffffffffffffffffffff1673ffffffffffffffffffffffffffffffffffffffff16815260200190815260200160002060050160009054906101000a900460ff161515146108ec576040517f08c379a00000000000000000000000000000000000000000000000000000000081526004016108e390612e9e565b60405180910390fd5b80600460008473ffffffffffffffffffffffffffffffffffffffff1673ffffffffffffffffffffffffffffffffffffffff1681526020019081526020016000206000015414610970576040517f08c379a000000000000000000000000000000000000000000000000000000000815260040161096790612f0a565b60405180910390fd5b6001600760003373ffffffffffffffffffffffffffffffffffffffff1673ffffffffffffffffffffffffffffffffffffffff16815260200190815260200160002060050160006101000a81548160ff02191690831515021790555080600760003373ffffffffffffffffffffffffffffffffffffffff1673ffffffffffffffffffffffffffffffffffffffff168152602001908152602001600020600601819055506006339080600181540180825580915050600190039060005260206000200160009091909190916101000a81548173ffffffffffffffffffffffffffffffffffffffff021916908373ffffffffffffffffffffffffffffffffffffffff160217905550600460008373ffffffffffffffffffffffffffffffffffffffff1673ffffffffffffffffffffffffffffffffffffffff1681526020019081526020016000206004016000815480929190610ac890612f59565b91905055505050565b60606003805480602002602001604051908101604052809291908181526020018280548015610b5557602002820191906000526020600020905b8160009054906101000a900473ffffffffffffffffffffffffffffffffffffffff1673ffffffffffffffffffffffffffffffffffffffff1681526020019060010190808311610b0b575b5050505050905090565b60068181548110610b6f57600080fd5b906000526020600020016000915054906101000a900473ffffffffffffffffffffffffffffffffffffffff1681565b6004602052806000526040600020600091509050806000015490806001018054610bc790612a3d565b80601f0160208091040260200160405190810160405280929190818152602001828054610bf390612a3d565b8015610c405780601f10610c1557610100808354040283529160200191610c40565b820191906000526020600020905b815481529060010190602001808311610c2357829003601f168201915b505050505090806002018054610c5590612a3d565b80601f0160208091040260200160405190810160405280929190818152602001828054610c8190612a3d565b8015610cce5780601f10610ca357610100808354040283529160200191610cce565b820191906000526020600020905b815481529060010190602001808311610cb157829003601f168201915b505050505090806003018054610ce390612a3d565b80601f0160208091040260200160405190810160405280929190818152602001828054610d0f90612a3d565b8015610d5c5780601f10610d3157610100808354040283529160200191610d5c565b820191906000526020600020905b815481529060010190602001808311610d3f57829003601f168201915b5050505050908060040154908060050160009054906101000a900473ffffffffffffffffffffffffffffffffffffffff1690806006018054610d9d90612a3d565b80601f0160208091040260200160405190810160405280929190818152602001828054610dc990612a3d565b8015610e165780601f10610deb57610100808354040283529160200191610e16565b820191906000526020600020905b815481529060010190602001808311610df957829003601f168201915b5050505050905087565b60606006805480602002602001604051908101604052809291908181526020018280548015610ea457602002820191906000526020600020905b8160009054906101000a900473ffffffffffffffffffffffffffffffffffffffff1673ffffffffffffffffffffffffffffffffffffffff1681526020019060010190808311610e5a575b5050505050905090565b610eb6611f2b565b600760008373ffffffffffffffffffffffffffffffffffffffff1673ffffffffffffffffffffffffffffffffffffffff1681526020019081526020016000206040518061010001604052908160008201548152602001600182018054610f1b90612a3d565b80601f0160208091040260200160405190810160405280929190818152602001828054610f4790612a3d565b8015610f945780601f10610f6957610100808354040283529160200191610f94565b820191906000526020600020905b815481529060010190602001808311610f7757829003601f168201915b50505050508152602001600282018054610fad90612a3d565b80601f0160208091040260200160405190810160405280929190818152602001828054610fd990612a3d565b80156110265780601f10610ffb57610100808354040283529160200191611026565b820191906000526020600020905b81548152906001019060200180831161100957829003601f168201915b505050505081526020016003820154815260200160048201805461104990612a3d565b80601f016020809104026020016040519081016040528092919081815260200182805461107590612a3d565b80156110c25780601f10611097576101008083540402835291602001916110c2565b820191906000526020600020905b8154815290600101906020018083116110a557829003601f168201915b505050505081526020016005820160009054906101000a900460ff16151515158152602001600682015481526020016007820160009054906101000a900473ffffffffffffffffffffffffffffffffffffffff1673ffffffffffffffffffffffffffffffffffffffff1673ffffffffffffffffffffffffffffffffffffffff16815250509050919050565b600760205280600052604060002060009150905080600001549080600101805461117690612a3d565b80601f01602080910402602001604051908101604052809291908181526020018280546111a290612a3d565b80156111ef5780601f106111c4576101008083540402835291602001916111ef565b820191906000526020600020905b8154815290600101906020018083116111d257829003601f168201915b50505050509080600201805461120490612a3d565b80601f016020809104026020016040519081016040528092919081815260200182805461123090612a3d565b801561127d5780601f106112525761010080835404028352916020019161127d565b820191906000526020600020905b81548152906001019060200180831161126057829003601f168201915b50505050509080600301549080600401805461129890612a3d565b80601f01602080910402602001604051908101604052809291908181526020018280546112c490612a3d565b80156113115780601f106112e657610100808354040283529160200191611311565b820191906000526020600020905b8154815290600101906020018083116112f457829003601f168201915b5050505050908060050160009054906101000a900460ff16908060060154908060070160009054906101000a900473ffffffffffffffffffffffffffffffffffffffff16905088565b60018060000154905081565b606060058054806020026020016040519081016040528092919081815260200182805480156113ea57602002820191906000526020600020905b8160009054906101000a900473ffffffffffffffffffffffffffffffffffffffff1673ffffffffffffffffffffffffffffffffffffffff16815260200190600101908083116113a0575b5050505050905090565b6113fc611f88565b600460008373ffffffffffffffffffffffffffffffffffffffff1673ffffffffffffffffffffffffffffffffffffffff1681526020019081526020016000206040518060e00160405290816000820154815260200160018201805461146090612a3d565b80601f016020809104026020016040519081016040528092919081815260200182805461148c90612a3d565b80156114d95780601f106114ae576101008083540402835291602001916114d9565b820191906000526020600020905b8154815290600101906020018083116114bc57829003601f168201915b505050505081526020016002820180546114f290612a3d565b80601f016020809104026020016040519081016040528092919081815260200182805461151e90612a3d565b801561156b5780601f106115405761010080835404028352916020019161156b565b820191906000526020600020905b81548152906001019060200180831161154e57829003601f168201915b5050505050815260200160038201805461158490612a3d565b80601f01602080910402602001604051908101604052809291908181526020018280546115b090612a3d565b80156115fd5780601f106115d2576101008083540402835291602001916115fd565b820191906000526020600020905b8154815290600101906020018083116115e057829003601f168201915b50505050508152602001600482015481526020016005820160009054906101000a900473ffffffffffffffffffffffffffffffffffffffff1673ffffffffffffffffffffffffffffffffffffffff1673ffffffffffffffffffffffffffffffffffffffff16815260200160068201805461167690612a3d565b80601f01602080910402602001604051908101604052809291908181526020018280546116a290612a3d565b80156116ef5780601f106116c4576101008083540402835291602001916116ef565b820191906000526020600020905b8154815290600101906020018083116116d257829003601f168201915b5050505050815250509050919050565b600260009054906101000a900473ffffffffffffffffffffffffffffffffffffffff1673ffffffffffffffffffffffffffffffffffffffff163373ffffffffffffffffffffffffffffffffffffffff161461178f576040517f08c379a000000000000000000000000000000000000000000000000000000000815260040161178690613013565b60405180910390fd5b6117996001611f07565b60006117a56001611f1d565b90506040518060e00160405280828152602001868152602001858152602001848152602001600081526020018773ffffffffffffffffffffffffffffffffffffffff16815260200183815250600460008873ffffffffffffffffffffffffffffffffffffffff1673ffffffffffffffffffffffffffffffffffffffff16815260200190815260200160002060008201518160000155602082015181600101908161184f9190612c1a565b5060408201518160020190816118659190612c1a565b50606082015181600301908161187b9190612c1a565b506080820151816004015560a08201518160050160006101000a81548173ffffffffffffffffffffffffffffffffffffffff021916908373ffffffffffffffffffffffffffffffffffffffff16021790555060c08201518160060190816118e29190612c1a565b509050506003869080600181540180825580915050600190039060005260206000200160009091909190916101000a81548173ffffffffffffffffffffffffffffffffffffffff021916908373ffffffffffffffffffffffffffffffffffffffff160217905550807fd297f12b256bb8485a6013fb5e302017018123e99a0ebb20756c09e1707b4b9086868660008b8860405161198496959493929190613033565b60405180910390a2505050505050565b61199c611f88565b600260009054906101000a900473ffffffffffffffffffffffffffffffffffffffff1673ffffffffffffffffffffffffffffffffffffffff163373ffffffffffffffffffffffffffffffffffffffff1614611a2c576040517f08c379a0000000000000000000000000000000000000000000000000000000008152600401611a2390613122565b60405180910390fd5b600060038054905011611a74576040517f08c379a0000000000000000000000000000000000000000000000000000000008152600401611a6b9061318e565b60405180910390fd5b60008080600090505b600380549050811015611bea57826004600060038481548110611aa357611aa26131ae565b5b9060005260206000200160009054906101000a900473ffffffffffffffffffffffffffffffffffffffff1673ffffffffffffffffffffffffffffffffffffffff1673ffffffffffffffffffffffffffffffffffffffff168152602001908152602001600020600401541115611bd7576004600060038381548110611b2a57611b296131ae565b5b9060005260206000200160009054906101000a900473ffffffffffffffffffffffffffffffffffffffff1673ffffffffffffffffffffffffffffffffffffffff1673ffffffffffffffffffffffffffffffffffffffff16815260200190815260200160002060040154925060038181548110611ba957611ba86131ae565b5b9060005260206000200160009054906101000a900473ffffffffffffffffffffffffffffffffffffffff1691505b8080611be290612f59565b915050611a7d565b50600460008273ffffffffffffffffffffffffffffffffffffffff1673ffffffffffffffffffffffffffffffffffffffff1681526020019081526020016000206040518060e001604052908160008201548152602001600182018054611c4f90612a3d565b80601f0160208091040260200160405190810160405280929190818152602001828054611c7b90612a3d565b8015611cc85780601f10611c9d57610100808354040283529160200191611cc8565b820191906000526020600020905b815481529060010190602001808311611cab57829003601f168201915b50505050508152602001600282018054611ce190612a3d565b80601f0160208091040260200160405190810160405280929190818152602001828054611d0d90612a3d565b8015611d5a5780601f10611d2f57610100808354040283529160200191611d5a565b820191906000526020600020905b815481529060010190602001808311611d3d57829003601f168201915b50505050508152602001600382018054611d7390612a3d565b80601f0160208091040260200160405190810160405280929190818152602001828054611d9f90612a3d565b8015611dec5780601f10611dc157610100808354040283529160200191611dec565b820191906000526020600020905b815481529060010190602001808311611dcf57829003601f168201915b50505050508152602001600482015481526020016005820160009054906101000a900473ffffffffffffffffffffffffffffffffffffffff1673ffffffffffffffffffffffffffffffffffffffff1673ffffffffffffffffffffffffffffffffffffffff168152602001600682018054611e6590612a3d565b80601f0160208091040260200160405190810160405280929190818152602001828054611e9190612a3d565b8015611ede5780601f10611eb357610100808354040283529160200191611ede565b820191906000526020600020905b815481529060010190602001808311611ec157829003601f168201915b5050505050815250509250505090565b60008060000154905081565b6000600380549050905090565b6001816000016000828254019250508190555050565b600081600001549050919050565b604051806101000160405280600081526020016060815260200160608152602001600081526020016060815260200160001515815260200160008152602001600073ffffffffffffffffffffffffffffffffffffffff1681525090565b6040518060e001604052806000815260200160608152602001606081526020016060815260200160008152602001600073ffffffffffffffffffffffffffffffffffffffff168152602001606081525090565b6000604051905090565b600080fd5b600080fd5b600073ffffffffffffffffffffffffffffffffffffffff82169050919050565b600061201a82611fef565b9050919050565b61202a8161200f565b811461203557600080fd5b50565b60008135905061204781612021565b92915050565b600080fd5b600080fd5b6000601f19601f8301169050919050565b7f4e487b7100000000000000000000000000000000000000000000000000000000600052604160045260246000fd5b6120a082612057565b810181811067ffffffffffffffff821117156120bf576120be612068565b5b80604052505050565b60006120d2611fdb565b90506120de8282612097565b919050565b600067ffffffffffffffff8211156120fe576120fd612068565b5b61210782612057565b9050602081019050919050565b82818337600083830152505050565b6000612136612131846120e3565b6120c8565b90508281526020810184848401111561215257612151612052565b5b61215d848285612114565b509392505050565b600082601f83011261217a5761217961204d565b5b813561218a848260208601612123565b91505092915050565b600080600080608085870312156121ad576121ac611fe5565b5b60006121bb87828801612038565b945050602085013567ffffffffffffffff8111156121dc576121db611fea565b5b6121e887828801612165565b935050604085013567ffffffffffffffff81111561220957612208611fea565b5b61221587828801612165565b925050606085013567ffffffffffffffff81111561223657612235611fea565b5b61224287828801612165565b91505092959194509250565b6000819050919050565b6122618161224e565b82525050565b600060208201905061227c6000830184612258565b92915050565b61228b8161224e565b811461229657600080fd5b50565b6000813590506122a881612282565b92915050565b6000602082840312156122c4576122c3611fe5565b5b60006122d284828501612299565b91505092915050565b6122e48161200f565b82525050565b60006020820190506122ff60008301846122db565b92915050565b6000806040838503121561231c5761231b611fe5565b5b600061232a85828601612038565b925050602061233b85828601612299565b9150509250929050565b600081519050919050565b600082825260208201905092915050565b6000819050602082019050919050565b61237a8161200f565b82525050565b600061238c8383612371565b60208301905092915050565b6000602082019050919050565b60006123b082612345565b6123ba8185612350565b93506123c583612361565b8060005b838110156123f65781516123dd8882612380565b97506123e883612398565b9250506001810190506123c9565b5085935050505092915050565b6000602082019050818103600083015261241d81846123a5565b905092915050565b60006020828403121561243b5761243a611fe5565b5b600061244984828501612038565b91505092915050565b600081519050919050565b600082825260208201905092915050565b60005b8381101561248c578082015181840152602081019050612471565b60008484015250505050565b60006124a382612452565b6124ad818561245d565b93506124bd81856020860161246e565b6124c681612057565b840191505092915050565b600060e0820190506124e6600083018a612258565b81810360208301526124f88189612498565b9050818103604083015261250c8188612498565b905081810360608301526125208187612498565b905061252f6080830186612258565b61253c60a08301856122db565b81810360c083015261254e8184612498565b905098975050505050505050565b6125658161224e565b82525050565b600082825260208201905092915050565b600061258782612452565b612591818561256b565b93506125a181856020860161246e565b6125aa81612057565b840191505092915050565b60008115159050919050565b6125ca816125b5565b82525050565b6000610100830160008301516125e9600086018261255c565b5060208301518482036020860152612601828261257c565b9150506040830151848203604086015261261b828261257c565b9150506060830151612630606086018261255c565b5060808301518482036080860152612648828261257c565b91505060a083015161265d60a08601826125c1565b5060c083015161267060c086018261255c565b5060e083015161268360e0860182612371565b508091505092915050565b600060208201905081810360008301526126a881846125d0565b905092915050565b6126b9816125b5565b82525050565b6000610100820190506126d5600083018b612258565b81810360208301526126e7818a612498565b905081810360408301526126fb8189612498565b905061270a6060830188612258565b818103608083015261271c8187612498565b905061272b60a08301866126b0565b61273860c0830185612258565b61274560e08301846122db565b9998505050505050505050565b600060e08301600083015161276a600086018261255c565b5060208301518482036020860152612782828261257c565b9150506040830151848203604086015261279c828261257c565b915050606083015184820360608601526127b6828261257c565b91505060808301516127cb608086018261255c565b5060a08301516127de60a0860182612371565b5060c083015184820360c08601526127f6828261257c565b9150508091505092915050565b6000602082019050818103600083015261281d8184612752565b905092915050565b600080600080600060a0868803121561284157612840611fe5565b5b600061284f88828901612038565b955050602086013567ffffffffffffffff8111156128705761286f611fea565b5b61287c88828901612165565b945050604086013567ffffffffffffffff81111561289d5761289c611fea565b5b6128a988828901612165565b935050606086013567ffffffffffffffff8111156128ca576128c9611fea565b5b6128d688828901612165565b925050608086013567ffffffffffffffff8111156128f7576128f6611fea565b5b61290388828901612165565b9150509295509295909350565b7f4f6e6c7920566f74696e67204f7267616e697a65722063616e2061646420566f60008201527f7465720000000000000000000000000000000000000000000000000000000000602082015250565b600061296c60238361245d565b915061297782612910565b604082019050919050565b6000602082019050818103600083015261299b8161295f565b9050919050565b7f566f74657220616c726561647920657869737400000000000000000000000000600082015250565b60006129d860138361245d565b91506129e3826129a2565b602082019050919050565b60006020820190508181036000830152612a07816129cb565b9050919050565b7f4e487b7100000000000000000000000000000000000000000000000000000000600052602260045260246000fd5b60006002820490506001821680612a5557607f821691505b602082108103612a6857612a67612a0e565b5b50919050565b60008190508160005260206000209050919050565b60006020601f8301049050919050565b600082821b905092915050565b600060088302612ad07fffffffffffffffffffffffffffffffffffffffffffffffffffffffffffffffff82612a93565b612ada8683612a93565b95508019841693508086168417925050509392505050565b6000819050919050565b6000612b17612b12612b0d8461224e565b612af2565b61224e565b9050919050565b6000819050919050565b612b3183612afc565b612b45612b3d82612b1e565b848454612aa0565b825550505050565b600090565b612b5a612b4d565b612b65818484612b28565b505050565b5b81811015612b8957612b7e600082612b52565b600181019050612b6b565b5050565b601f821115612bce57612b9f81612a6e565b612ba884612a83565b81016020851015612bb7578190505b612bcb612bc385612a83565b830182612b6a565b50505b505050565b600082821c905092915050565b6000612bf160001984600802612bd3565b1980831691505092915050565b6000612c0a8383612be0565b9150826002028217905092915050565b612c2382612452565b67ffffffffffffffff811115612c3c57612c3b612068565b5b612c468254612a3d565b612c51828285612b8d565b600060209050601f831160018114612c845760008415612c72578287015190505b612c7c8582612bfe565b865550612ce4565b601f198416612c9286612a6e565b60005b82811015612cba57848901518255600182019150602085019450602081019050612c95565b86831015612cd75784890151612cd3601f891682612be0565b8355505b6001600288020188555050505b505050505050565b6000819050919050565b6000612d11612d0c612d0784612cec565b612af2565b61224e565b9050919050565b612d2181612cf6565b82525050565b6000819050919050565b6000612d4c612d47612d4284612d27565b612af2565b61224e565b9050919050565b612d5c81612d31565b82525050565b600060e0820190508181036000830152612d7c818a612498565b90508181036020830152612d908189612498565b9050612d9f6040830188612d18565b8181036060830152612db18187612498565b9050612dc060808301866126b0565b612dcd60a0830185612d53565b612dda60c08301846122db565b98975050505050505050565b7f596f7520617265206e6f7420616c6c6f77656420746f20766f74650000000000600082015250565b6000612e1c601b8361245d565b9150612e2782612de6565b602082019050919050565b60006020820190508181036000830152612e4b81612e0f565b9050919050565b7f596f7520616c726561647920766f746564000000000000000000000000000000600082015250565b6000612e8860118361245d565b9150612e9382612e52565b602082019050919050565b60006020820190508181036000830152612eb781612e7b565b9050919050565b7f43616e646964617465206e6f7420666f756e6400000000000000000000000000600082015250565b6000612ef460138361245d565b9150612eff82612ebe565b602082019050919050565b60006020820190508181036000830152612f2381612ee7565b9050919050565b7f4e487b7100000000000000000000000000000000000000000000000000000000600052601160045260246000fd5b6000612f648261224e565b91507fffffffffffffffffffffffffffffffffffffffffffffffffffffffffffffffff8203612f9657612f95612f2a565b5b600182019050919050565b7f4f6e6c7920566f74696e67204f7267616e697a65722063616e2061646420436160008201527f6e64696461746500000000000000000000000000000000000000000000000000602082015250565b6000612ffd60278361245d565b915061300882612fa1565b604082019050919050565b6000602082019050818103600083015261302c81612ff0565b9050919050565b600060c082019050818103600083015261304d8189612498565b905081810360208301526130618188612498565b905081810360408301526130758187612498565b90506130846060830186612d53565b61309160808301856122db565b81810360a08301526130a38184612498565b9050979650505050505050565b7f4f6e6c7920566f74696e67204f7267616e697a65722063616e2073656520776960008201527f6e6e657200000000000000000000000000000000000000000000000000000000602082015250565b600061310c60248361245d565b9150613117826130b0565b604082019050919050565b6000602082019050818103600083015261313b816130ff565b9050919050565b7f4e6f2043616e64696461746520466f756e640000000000000000000000000000600082015250565b600061317860128361245d565b915061318382613142565b602082019050919050565b600060208201905081810360008301526131a78161316b565b9050919050565b7f4e487b7100000000000000000000000000000000000000000000000000000000600052603260045260246000fdfea2646970667358221220472a18ac69d5dfdfed60474a7cbfdf9012c6f7eb99717ead4306623860c8fc1b64736f6c63430008120033",
  "linkReferences": {},
  "deployedLinkReferences": {}
}